:020000040800F2
:1000000000400020DDC80008E9700008EB7000081F
:1000100000000000000000000000000000000000E0
:10002000000000000000000000000000ED7000086B
:100030000000000000000000EF700008F1700008F0
:100040002DC900082DC900082DC900082DC90008B8
:100050002DC900082DC900082DC900082DC90008A8
:100060002DC90008F970000809710008197100080D
:100070002DC9000831710008417100085171000854
:100080002DC900082DC900082DC900082DC9000878
:100090002DC900082DC900082DC900082DC9000868
:1000A0002DC900082DC900082DC900082DC9000858
:1000B0002DC900082DC900082DC900086571000868
:1000C0000448054B10B5834203D0044B002B00D0ED
:1000D000984710BD4C0300204C0300200000000096
:1000E00006480749091A8B10C90FC91810B54910DD
:1000F00003D0044B002B00D0984710BD4C030020C8
:100100004C0300200000000010B5074C2378002BA2
:1001100009D1FFF7D5FF054B002B02D0044800E0C2
:1001200000BF0123237010BD4C030020000000001D
:1001300030C90008054B10B5002B03D00449054811
:1001400000E000BFFFF7CCFF10BDC046000000007C
:100150005003002030C9000870B50C4D0C4E761BC2
:10016000B61005D0002408CD01349847A642FAD134
:100170000CF0DEFB074D084E761BB61005D00024B0
:1001800008CD01349847A642FAD170BDECCE0008E4
:10019000ECCE0008ECCE0008F0CE0008F0B505006B
:1001A00083074AD0541E002A44D0CEB20300032253
:1001B00002E00135013C3DD301332E701342F8D1EA
:1001C000032C2FD9FF220A40150215432A04154398
:1001D0000F2C35D92700103F3F093E01B4461E00C1
:1001E0001A0010366644156055609560D56010326F
:1001F000B242F8D10F260C2201373F012640DB190D
:100200003700224217D03E1FB608B400A4461A0099
:100210001C1D644420C2A242FCD103240136B60056
:100220009B193C40002C05D0C9B21C191970013330
:100230009C42FBD1F0BD3400F4E714000300BFE79B
:100240002700E0E7F0B5CE4600B588B01D001700E6
:10025000129C0023002D04DA802109066B181D0072
:100260002D23109A1370662C23D0462C21D02023E6
:1002700022009A43452A48D007AB049306AB039368
:10028000119B3A0002930E9B0193022300932B00D3
:1002900000F0BAFE0600672C49D10F9BDB0748D45B
:1002A000079B3000139A9B1B136008B004BC914657
:1002B000F0BD07AB049306AB0393119B3A00029386
:1002C0000E9B0193032300932B0000F09DFE0E9BD9
:1002D0000600994633788144302B2DD0119B1C6841
:1002E0004C44002300223800290004F053FB230073
:1002F0000028D6D1079B9C42D3D930215A1C0792A3
:100300001970079BA342F9D3CBE70E9B3A00013348
:100310000E9307AB049306AB0393119B02930E9BC2
:100320000193022300932B0000F06EFE0600472C81
:10033000B3D00E9BF418D4E7002200233800290024
:1003400004F028FB0028C9D101240E9BE41A119B5C
:100350001C60C5E7F0B54F46D6464646C0B5831C7F
:1003600099469A4682B007000C0002702B230029A0
:1003700001DA4C4202337B70092C2EDD07236B44DB
:1003800098461D0001E0350004000A21200004F019
:10039000EBFA6E1E3031317020000A2104F0FEF9B4
:1003A000632CF0DC3030AA1EC0B2107042450CD273
:1003B000494600E010780132087001314245F9D118
:1003C00009266E44761B4E44B2465346D81B02B0F3
:1003D0001CBC90469946A246F0BD30233034BB7019
:1003E0003B1D9A46FC70F0E7F0B5DE4657464E4698
:1003F0004546E0B591B01F001A9B0C0098461600C8
:10040000050001F00FFE036818000A9300F01EFDBE
:1004100000230B900E93237E0722994623684146C2
:100420009A4643461B68073393431A0008320A6012
:100430001A685B689046A264E36401229B465B00F5
:100440005B0809935242B84B4046099906F09EF961
:10045000002809D10122B44B52424046099904F0C8
:10046000A9FA002800D188E042465B46404659463A
:1004700006F08CF9002800D09FE280235146626884
:10048000DB000B43511C30D0494667296FD0472908
:100490006DD00021236006910EA90591494604A85C
:1004A00004910DA984460391232161440193009294
:1004B000029142465B4628008A46FFF7C3FE80460B
:1004C0004B460D99652B39D8200001394A465030EA
:1004D0000D91FFF73FFF0E9A834613182361012AFF
:1004E00000DCC3E10133236139E00732626000219F
:1004F000236006910EA90591494604A804910DA90F
:100500008446039123216144019300925B46424655
:10051000029128008A46FFF795FE20234A4680462E
:100520009A43472ACCD10D99CB1C00DB7DE04B468A
:10053000023BDBB299464B46652BC5D9662B00D1F1
:100540007DE00E9B8B4200DC85E00122002901DC6E
:100550000132521A9B18236100239B46A165534622
:100560001B78002B21D043232D22E2541DE0002ACA
:1005700000D078E001226260B9E700220023404603
:10058000594604F00DFA002802D043232D22E254EC
:100590004B46472B50D9654B98460323524623615F
:1005A00001339A4300239B462260330000970FAA31
:1005B0002100280000F022FA431C2DD023685A05A0
:1005C00000D570E02369424631002800B847431C3B
:1005D00022D022680F98E368920760D51A1A002A81
:1005E0005DDD19239946002398463B00A14437005E
:1005F0002E004D46A1464446984606E04B460F98CD
:10060000DB6801341A1AA24249DD01232A003900AD
:100610003000C047431CF1D10120404211B03CBC26
:1006200090469946A246AB46F0BD6368994200DD0C
:100630007DE76723994684E73D4B9846ADE76368BD
:10064000002900DC17E12161002B00D14AE10133D0
:100650005B18236180E723682161DB0700D47BE717
:100660004B1C236178E70021236006910EA90591B8
:10067000494604A804910DA98446039123216144AD
:100680000291019300925B46424628008A46FFF79A
:10069000D9FD0D998046CB1C00DA48E7C5E79842A2
:1006A000BCDA1800BAE74A46652A45D9A06CE16C65
:1006B0000022002304F06EF9002800D184E0012319
:1006C0001C4A31002800B847431CA5D00D9B0E9A48
:1006D000934203DB2268D30700D47BE70B9B0A9A83
:1006E00031002800B847431C96D01A2399460023AE
:1006F00098460E9BA144012B00DC6AE73B003700C3
:100700002E004D46A1464446984605E00E9B013416
:10071000013BA34200DCF7E001232A00390030004E
:10072000C047431CF2D177E7FFFFEF7FACCD000855
:10073000A8CD0008B8CD00080E9A012A00DC80E0A0
:100740000123424631002800B847431C00D163E72B
:100750000B9B0A9A31002800B847431C00D15BE785
:10076000A06CE16C0E9B00229946002304F012F964
:10077000002871D01A239A46002398464B46A2447B
:10078000012B17DDA1464446B84637002E005546DA
:1007900004E00E9B0134013BA34207DD01232A0044
:1007A00039003000C047431CF3D135E735004C46D3
:1007B0003E00474622005B46503231002800B847D1
:1007C000431C00D005E727E70D9B002B58DDA36DE8
:1007D0009A460E9B9B46534500DD88E05B46002B06
:1007E00008DD424631002800B847431C00D113E71A
:1007F000A36D9A465B46DB435A46DB171A405346C5
:1008000093469B1A1A2294460022A44461469146BC
:10081000002B00DC83E0A2464C46B94637002E0090
:100820000D0006E053465A469B6D01349A1AA242C7
:1008300070DD01232A0039003000C847431CF1D184
:10084000EAE6DB0700D57BE70123424631002800BA
:10085000B847431CAED1DFE64B464246013B01326E
:1008600031002800B847431CA4D1D5E62268D2073E
:1008700000D474E636E6002B3BD09A1C22616BE66E
:1008800001235B4A31002800B847431C00D1C3E66E
:100890000D9B0E9A134332D00B9B0A9A310028000D
:1008A000B847431C00D1B7E61A239A46002399465D
:1008B0000D9BA244002B00DB8FE03B0037002E0095
:1008C0005546A2464C46994604E00D9B01345B42D6
:1008D000A3427EDD01232A0039003000C847431CB3
:1008E000F3D199E62268D20700D435E6AFE6D346C5
:1008F00074E720680122C007C0D59A1CBEE72268B1
:10090000D30700D466E6C7E74C46350022683E00B0
:1009100047465FE6350054463E009A464F460D9ADC
:100920000E998A4202DB2368DB0709D50B9B0A9AE2
:1009300031002800B847431C00D16DE60E990D9A8E
:100940008B1A9946524502DC52468A1A91464A460B
:10095000002A0BDD42464B46524431002800B8477E
:10096000431C00D158E60E9B0D9A9B1A4A46D2436F
:100970004946D21711401A229246002289465B1A34
:10098000A2449046002B00DC23E63B0037002E00FB
:100990005546A2464446984607E00D9A0E9B013400
:1009A0009B1A4A469B1AA3421CDD01232A003900E8
:1009B0003000C047431CF0D12EE65B46002B02DA24
:1009C00043232D22E2544B46472B08D9094B984626
:1009D000E3E5350054463E004F460E9BF3E5064BDB
:1009E0009846DAE55446350022683E004746F1E570
:1009F000B8CD0008B4CD0008B0CD0008F0B54F4622
:100A00004646D646C0B51F00089B914698468A6860
:100A10000B6906000C00934200DA13004A4613608B
:100A20004322A25C002A02D04A46013313602368A5
:100A30009A065AD54B461B6806209A1C4B461A60EC
:100A400023681900184208D1E16800258A1A192183
:100A50008A461900A244002A3FDC4323E35C5A1E65
:100A600093418A060AD53020E118433108704521A8
:100A70005A1C615CA2184332023311702200390003
:100A800043323000C047431C19D006232068A268B7
:100A900021690340042B30D08A423ADD0023994675
:100AA000521A91441A34002502E001354D4530DADE
:100AB0000123220039003000C047431CF5D101203A
:100AC00040421CBC90469946A246F0BD4B46E268A7
:100AD0001B680135D31AAB4220DD01235246390091
:100AE0003000C047431CF1D1E9E706221A4212D078
:100AF0004323E35C5A1E9341C0E74B46E0681B6802
:100B0000C31AD843C017184081468A42C8DC002B5C
:100B1000C8DC0020D5E74A46126895E743232168E0
:100B2000E35C5A1E93418A069DD4A7E7F0B5574669
:100B30009A4643239C464E464546DE468C446346D1
:100B4000E0B587B003930B7E914680460C00109A67
:100B50006E2B00D1D8E000D871E0732B00D11AE1E0
:100B600000D881E0752B00D1FFE0782B00D00BE19D
:100B70000B6878204521605494498B46116840C920
:100B80001160180603D4580601D53604360CDA076E
:100B900002D52022134323601027002E00D1C2E08B
:100BA00043230022E2546368A360002B00DAC5E00F
:100BB0000422216891432160002E00D083E0002BA5
:100BC00000D0BDE0039D082F00D18CE0039B5B1B90
:100BD0002361534605AA009321004B464046FFF788
:100BE0000DFF431C22D023692A0049464046D047C6
:100BF000431C1BD022680598E368920700D47FE06D
:100C00001A1A002A00DC7BE026000025193606E0CF
:100C1000E368059801351A1AAA4200DC70E0012346
:100C2000320049464046D047431CF1D101204042A2
:100C300007B03CBC90469946A246AB46F0BD632B3C
:100C400000D184E01FD8002B69D0582B00D09BE046
:100C5000452163545E4923688B46116840C9116081
:100C6000180600D48FE792E76F2B7ED0702B00D050
:100C70008AE02023096878200B43452123606054D3
:100C800052498B467AE7642B01D0692B7CD11168DD
:100C90002368081D10601D064AD50A681600002A40
:100CA00003DB4B4B0A279B467DE743222D21A154B2
:100CB00062687642A260002A02DB0422934323602A
:100CC000434B0A279B46039D00E006003900300095
:100CD00003F060FD5B465B5C013D2B70BE42F4D2CD
:100CE000082F00D072E72368DB0700D46EE7636843
:100CF0002269934200DD69E73023013D2B7065E7EF
:100D0000984295DA180093E7136809681D1D606919
:100D100015601B680E0601D449064BD418600023E9
:100D2000039D236155E7202322689A43226037E719
:100D30005D06B2D500228E5E3200B0E7002EC2D131
:100D40005B4625001A7842234235E2543BE713689C
:100D50002500191D11601A684223E254413B4235B7
:100D6000236143230022E25433E7116820680D1DFC
:100D70001560060601D440061ED40E686F2B1DD0E8
:100D8000134B0A279B460BE742222500A35401235D
:100D900042352361E5E71368191D11601D6862681B
:100DA0000021280001F05AF900280BD0401B606098
:100DB0002061D6E71880B2E70E88DFE7044B0827EA
:100DC0009B46EDE660682061CBE7C046D0CD0008C9
:100DD000BCCD00080CB400B59DB002910691094944
:100DE0001EAB07910491084904CB059102A9019318
:100DF00002F0E6F80023029A13701DB008BC02B09E
:100E00001847C046FFFFFF7F0802FFFF0EB400B582
:100E10000B499CB0079104910A491DAB05910A4901
:100E200004CB02900690086802A9019302F0C8F86A
:100E30000023029A13701CB008BC03B01847C046C8
:100E4000FFFFFF7F0802FFFF0000002010B58307AF
:100E500027D00378002B26D00300032102E01A7864
:100E6000002A1CD001330B42F9D119680F4A104CEB
:100E70008A188A4322420FD1043319680B4A8A1810
:100E80008A43224208D104331968084A8A188A43DF
:100E90002242F1D000E001331A78002AFBD1181A5F
:100EA00010BD0300E1E70020FAE7C046FFFEFEFEAA
:100EB00080808080F0B557464546DE464E46E0B518
:100EC0000C69036985B007008846A34200DA99E0FF
:100ED000142114228C46013C84444244A300D618B9
:100EE000634403931B6861469A463368019101335A
:100EF000190050460292994603F0C6FB0500CA4508
:100F000041D3019900238A46A446504600211C0083
:100F1000BA46029A009608CA1E04360C6E43B346BF
:100F2000A3445C461B0C6B43260C9E190368340CCF
:100F30001F043F0C7F1859460904090C7F1A31041D
:100F4000090C1B0C5B1A39145B183E041914360C7F
:100F50001B04334308C0009B9342DCD21E00039B5A
:100F600064461A6857460092002A0CD1019A043B45
:100F7000934204D806E0043B013C934202D919682D
:100F80000029F8D03C614146380001F013FC0028EC
:100F900030DB00230135A046AC461C0001990298C5
:100FA0000B6820C81A04120C12192C04240C121BF2
:100FB0001B0C2C0C1B1B14141B1912041C14120CDC
:100FC0001B04134308C18642EAD2019A444665468F
:100FD0009446A3006344196800290BD1043B934253
:100FE00004D806E0043B013C934202D91968002969
:100FF000F8D03C61280005B03CBC90469946A2461A
:10100000AB46F0BD0020F6E7F0B557464E464546E4
:10101000DE461400E0B51D00466A9BB08246279F5D
:1010200002940395002E00D1C2E3316800290AD052
:101030000123726893404A608B6001F0E5F85346E3
:1010400000225B6A1A602E1E00DA24E200233200BE
:101050003B60D34B1A409A4200D127E2029B039C8B
:1010600018002100002200230890099103F092FC4F
:10107000002813D00123269A1360289B002B00D14F
:10108000A4E3C84B289A1360013B069306981BB053
:101090003CBC90469946A246AB46F0BD18AB0193C6
:1010A00019AB089C099D009322002B00504601F0CB
:1010B000BFFC330D834600D00BE2199B189FFC1830
:1010C000B94BE318202B01DC00F050FC4022D31A6E
:1010D0009E40B64B0298E318D840304305F0DAFB47
:1010E0000123B34D661E49190F930022B14B04F042
:1010F000BBFFB14AB14B04F04BFDB14AB14B03F019
:10110000D7FD040030000D0005F094FBAE4AAF4B54
:1011100004F03EFD02000B002000290003F0C8FD92
:1011200004000D0005F050FB002281460023200042
:10113000290003F035FC00280BD0484605F07AFB67
:101140002B00220003F026FC434258414B461B1A59
:101150009946BE1B731E98464B46162B00D9F4E2E7
:1011600008980999DA009A4B9B181A685B6803F093
:1011700017FC002800D1C8E201235B429C460023F3
:101180000D93002304934346E144002B00DAE4E28C
:101190004B46002B00DBBFE24A46049B07929B1A9A
:1011A000049353420C930023994653465E6A249B52
:1011B0000124092B00D9BBE2052B02DD0024043BEE
:1011C0002493249B032B01D100F012FD00DC93E15A
:1011D000249B042B00D0D9E201230B93259B002BE9
:1011E00001DC00F0B3FC1D0012930A93002373602E
:1011F000172D01DC00F0F6FE012204335B0018001D
:10120000143011000132A842F8D97160504600F044
:10121000B9FF0690002801D100F0DDFE5346069A82
:101220005B6A1A600A9B0E930E2B00D980E1002C9A
:1012300000D17DE10798002801DC00F033FD0F218B
:101240000200634B0A40D2009B1806111C685D68BF
:10125000F30601D500F0BEFC029A039B1092119395
:1012600002230293002E12D05A4F012333420AD098
:10127000029B20000133029329003A687B6804F046
:1012800087FC04000D0076100837002EEDD1109871
:10129000119922002B0004F075F806000F000D9B39
:1012A000002B09D000224C4B3000390003F078FBB2
:1012B000002801D000F0C6FD029805F0BBFA32000C
:1012C0003B0004F065FC0022444B03F0F1FC444A6F
:1012D0000B00944663440290039103930A9B002BF6
:1012E00001D100F0AAFC079B13930A9B10933900CD
:1012F000300005F069FA069B05005C1C05F09AFABF
:1013000002000B003000390004F0AEFE0F0010990F
:101310002F4B4A1ED2000B999B18303506001A68D5
:101320005B68EDB2002901D100F018FD00202D49C5
:1013300004F028F8029A039B04F096FE069B320004
:101340001D703B001490159103F03EFB002801D066
:1013500000F050FD32003B0000201F4904F084FEE5
:1013600002000B001498159903F02EFB002801D001
:1013700000F025FE109B012B01D100F0A7FC069A7E
:1013800021009446634402934B46169343461793B9
:101390005B46A146149C159DD34610938A4637E0C0
:1013A0000000F07FB9CD00083204000012040000F4
:1013B000000010FE0000F83F61436F63A787D23F33
:1013C000B3C8608B288AC63FFB799F501344D33F34
:1013D000B0C9000888C900080000F03F00001C40A8
:1013E0000000C0FC0000E03F32003B000020DE496E
:1013F00004F03AFE22002B0003F0D2FA002801D0BC
:1014000000F0BEFD029BCA46994501D100F057FC91
:101410000022D64B2000290004F0BAFB0022D34B57
:1014200004000D003000390004F0B2FB0F0006008C
:1014300005F0CAF9804605F0FDF902000B00300006
:10144000390004F011FE01239C4643463033DBB2E1
:101450009846534642461A7022002B0006000F00A1
:10146000E14403F09DFA0028BED04C46109BDA46BA
:101470009B46139B013307935946504600F0C4FE28
:101480000023079A2370269B1A60289B002B00D10B
:10149000FCE51C60FAE501236E00760832003B6033
:1014A000B34B03961A409A4200D0D7E5B14B269A27
:1014B00036031360029B360B1E4316D1289B002B6C
:1014C00001D100F092FDAC4B06930833289A1360CB
:1014D000DCE520002A03A44C120B1443A74A210088
:1014E0009E180023189F0F93FFE5289B002B00D028
:1014F0001AE3A34B0693C9E500230B93249B022B0D
:1015000000D16BE6002450467460210000F03AFEE2
:101510000690A04201D100F05EFD5346069A5B6A38
:1015200025941A6001230B93023B0A9312930E93A6
:10153000199B002B00DAC5E0079A0E2A00DDC1E0F6
:10154000904BD2009B1818685968259B0490059110
:10155000002B15DA0A9B002B12DC00D08BE3002253
:10156000894B04F015FB029A039B03F037FA00271E
:101570000026002800D102E3259B069CDD4304E3FE
:10158000029E039F049A059B3000390003F0FAFE87
:1015900005F01AF9050005F04DF9049A059B04F0D1
:1015A000F7FA02000B003000390004F05DFD2B005B
:1015B000069A30331370079B0600013307930A9B8A
:1015C0000F00541C012B50D00022684B04F0E0FAAD
:1015D0000022002306000F0003F0DCF9002800D0F1
:1015E0004AE7069A0E9B94466344013B99465B4644
:1015F00002935346A046CA460A93A146049C059D01
:101600000DE00022594B04F0C3FA0022002306002B
:101610000F00C84603F0BEF9002800D097E322006F
:101620002B003000390003F0ADFE05F0CDF8834605
:1016300005F000F922002B0004F0AAFA02000B00CA
:101640003000390004F010FD01239C465B46424601
:10165000303306000F00E1441370D045D1D1029B16
:101660005D469B460A9B4C469A4632003B00300042
:10167000390003F01DFB049A059B06000F0003F0E0
:10168000A3F900280BD1049A059B3000390003F020
:1016900081F9002800D1EFE6EB0700D4ECE6631EE9
:1016A0001D781A00069907E0013A994201D100F02D
:1016B00023FC15781C00013B392DF5D00135EDB226
:1016C0001D70D9E60B9A002A00D182E0249A012AE3
:1016D00000DC90E20A9B5D1E0C9BAB4200DB77E2D4
:1016E0000C9B0C95EA1A0025914404990A9BCC1A8C
:1016F000002B04DB9C460C006144E0440491012172
:10170000504600F09BFE060066E04346002B00DAE0
:10171000D2E200230D9304934B46079300230C93CE
:1017200053465E6A249BC8440124092B00D843E534
:10173000012200230B92023A24930A92259300235C
:1017400073600A9B0021129360E501230D9300232F
:1017500004934346002B00DB1AE501239B1B0493F3
:101760000023984614E5C0460000F03F00002440E6
:101770000000F07F0F270000E4CD000801FCFFFF10
:10178000F0CD0008B0C900080000144001230B93FD
:10179000249B052B00D0B5E6079A259B944663440D
:1017A000129301330A931D1E00DD1FE501251DE57F
:1017B000102000F03FFC53465862002801D100F091
:1017C0001EFC466086600660C6603CE4D84B06930B
:1017D0005CE400260C9D049C002C0DDD4346002B90
:1017E0000ADD2300444500DDD9E1049AE41AD21A47
:1017F00004924246D31A98460C9B002B1AD00B9B9E
:10180000002B00D189E1002D10DD31002A00504667
:1018100000F0F0FE5A4601000600504600F024FE9B
:1018200007005946504600F0EFFCBB460C9B5A1B84
:1018300000D073E10121504600F000FE4B46070046
:10184000002B00DD98E0249B0025012B00DC73E1D8
:101850004A460123002A00D099E01F204344184043
:1018600000D181E020231B1A042B00DCADE31C23F4
:10187000181A049B24189C468444634680440493AD
:10188000049B002B05DD59461A00504600F022FF4C
:1018900083464346002B05DD39004246504600F0A2
:1018A00019FF07000D9B002B00D01BE10A9B002BAA
:1018B00000DC01E10B9B002B00D080E0079B013393
:1018C00007930123069A5C469B1AB9461500984671
:1018D000B3460A9F07E0210000230A22504600F089
:1018E000B9FC3500040049462000FFF7E3FA303028
:1018F0006E1C28704544AF42EDDC33004F465E4617
:101900000025A3461C00049059460122504600F0D1
:10191000E1FE3900834600F04DFF631E1978002870
:1019200000DCABE11A00069806E0013A984200D1CB
:10193000B1E111781C00013B3929F6D00131197051
:101940003900504600F060FC002E00D194E5002DD7
:1019500005D0B54203D02900504600F055FC3100B7
:10196000504600F051FC87E51C2082E720220298B7
:10197000D31A9840FFF7B2FB01004A46504600F0E8
:1019800039FE249B0700012B00DC0AE100253B699E
:1019900003339B00FB18586800F006FD20231B1A38
:1019A0005BE7002331000A22504600F053FC129BF3
:1019B0000600002B00DCF5E242460A930792002C59
:1019C00005DD31002200504600F084FE0600B146DD
:1019D000002D00D0A5E10A9A069B94469846013B4B
:1019E0009C44634608930123029A5C461A403B00DC
:1019F000D346474698460A9241462000FFF75AFAD6
:101A000003000B90303331002000049300F0D2FE2D
:101A1000414605004A46584600F0E6FEC368824645
:101A20000100002B3CD1200000F0C4FE5146029082
:101A3000584600F0E9FB029A249B13430A9A134389
:101A400000D17DE27B1C9A46002D00DA43E1249B05
:101A50001D430A9B1D4300D13DE1029B002B00DD8D
:101A6000D1E1049B3B70089B9F4200D1DFE1210044
:101A700000230A22584600F0EDFB002304000A224E
:101A8000310058464E4511D000F0E4FB49460600AF
:101A900000230A22584600F0DDFB57468146ABE79B
:101AA000584600F0B1FB01230293CBE700F0D2FBD4
:101AB0005746060081469FE7249B022B4EDC0B9B7A
:101AC000002B00D07BE739005846FFF7F3F90300FD
:101AD000069A303304931370079B541C0133079309
:101AE000002511E73900584600F064FE002800DBAD
:101AF000DCE6079B5946013B98460A2200235046E4
:101B000000F0A8FB0B9B8346002B00D049E7129BFB
:101B1000002B00DC3FE20A93D3E60C9A594650466C
:101B200000F068FD834685E6024B06930333CDE45F
:101B3000B8CD0008F0CD00080299039A002900D022
:101B400086E61300120300D082E634E001230A93F4
:101B50002593F4E5129B0A93434607930A9B002BB7
:101B600000D009E539000522504600F073FB07005C
:101B70000100584600F01EFE002800DCFCE4312382
:101B8000069A079D541C137001353900504600F029
:101B90003BFB6B1C0793002E00D0E0E66CE4434651
:101BA00023E6029B002B00D0F0E60299039A130073
:101BB000120300D0EAE6D94A0025134200D147E6D5
:101BC000049B01350133049301239C46E0443FE626
:101BD0005D1B8AE5D24B0E401A6A5B6A0898099928
:101BE00003F0D0FB0323109011910293FFF73AFB0F
:101BF00000230B93D0E50F9A002A00D1FFE0C94AD9
:101C000094466344049A984494469C4463460C9DCD
:101C10001400049373E5029804F00CFE32003B00BC
:101C200003F0B6FF0022C04B03F042F8BF4A0B009E
:101C3000944663440290039103930022BC4B30000E
:101C4000390004F011FA029E039F32003B000400A9
:101C50000D0002F0B9FE002800D05CE180200006F3
:101C60008446390061440B0032002000290002F054
:101C700097FE00282AD0002700267DE4002805D101
:101C8000049AD20700D54DE600E019785C1C013BB0
:101C90003029FAD054E63123069A1370079B01339A
:101CA00007934DE6079B002B00D0F4E0029E039FB4
:101CB00002330293FFF7F3FA00230D934DE5169BD1
:101CC000DA469946179B9846109B9B46089B099CB1
:101CD000029303942CE443465A46B8461F00079BE0
:101CE000A34601330793029B54469246002B12DD14
:101CF00059460122504600F0EDFC3900834600F0C1
:101D000059FD002800DC2CE1049B392B00D1FAE0BE
:101D10000B9B313304934346049A35001A704E46A8
:101D20000EE67168504600F02DFA041E00D160E105
:101D3000310033690C319A1C92000C3000F0CEF95E
:101D400001222100504600F0C5FC814643E6029B7B
:101D50004C469B460A9B9A46FFF78EFB02980399D6
:101D600003F016FF069B109A149015919C461100E3
:101D700061441D7002912500012A1BD000226D4B89
:101D80003000390003F004FF0F00060004F01CFDD2
:101D9000040004F04FFD0B0002003900300004F095
:101DA00063F93034029B2C70013506000F00AB4202
:101DB000E4D11C001498159900225F4B02F078FFC3
:101DC00032003B0002F0ECFD002800D0D1E0149A74
:101DD000159B0020584904F047F932003B0002F0FF
:101DE000F3FD002800D171E700E01C00631E1A78A3
:101DF000302AFAD0139B01330793FFF73DFB3623BC
:101E0000189A9B1AFEE643465A46B8461F00079B9F
:101E1000A34601330793049B54469246392B72D054
:101E20004246049B3500013313704E4688E55B46FD
:101E3000A34654469A46079B35000133474607930D
:101E40004E4661E50A9B002B00D1E4E6129C002C73
:101E500000DC3BE7079B0022013B13933000354B2E
:101E6000390003F095FE06000F000298013004F0DF
:101E7000E1FC32003B0003F08BFE00222A4B02F013
:101E800017FF2A4A0B009446634402900391109472
:101E90000393FFF72CFA079B284A5C420F2308980C
:101EA00009992340DB00D3181A685B6803F070FEC1
:101EB000241106000F00002C00D17CE002221096B5
:101EC000119700231700164D0122224205D02A68DF
:101ED0006B6803F05DFE0123013764100835002CA8
:101EE000F2D10297109E119F002B01D1FFF7D7F975
:101EF00006000F00FFF7D3F93125079A1D70013254
:101F00000792FFF7B9FA39234246350013704E465F
:101F10003921631E06E50027002630E60000F07F29
:101F200088C900083304000000001C400000C0FC09
:101F300000001440000024400000E03FB0C9000849
:101F40004346B8461F004346DA46A3465C1C079B3F
:101F500001330793049B392BD5D0002D00DDD7E644
:101F6000D9E6002800D0D6E6049BDB0700D5CBE6F7
:101F7000D1E6139A631E01321D780792FFF791FB99
:101F80004C46109BDA469B46139B4546013307930C
:101F9000631EFFF786FB249B022B00DDDAE5434638
:101FA000079390E5249B022B00DDD3E5434607937E
:101FB000129B0A9303E502230293FFF770F9139B28
:101FC00001330793069BFFF76CFB042B00D157E40A
:101FD0003C23181A4DE4D5210C4B002249000C4833
:101FE00001F04EF90021FFF711F90A4B0693FFF7B4
:101FF0004DF8064B00220849054801F041F9074B0E
:102000000022EA21024801F03BF9C04640CE000818
:102010000CCE0008E4CD0008EA020000F4CD000870
:10202000F030704700487047540100200048704766
:102030005401002010B5034B0100186800F068FE41
:1020400010BDC0460000002010B5034B0100186809
:1020500000F008FE10BDC0460000002070B5CDB2F3
:10206000830734D0531E002A1BD00278AA4219D00D
:10207000032404E0013B14D30278AA4212D00130B9
:102080002042F7D1032B0ED8002B0AD00278AA42A7
:1020900008D0C31802E00278AA4203D0013083427C
:1020A000F9D1002070BDFF220C06240C1140214301
:1020B0000C04084E0C4302680749624051189143D2
:1020C0003142E3D1043B0430032BF4D8DCE71300A6
:1020D000D8E7C04680808080FFFEFEFEF0B5C64691
:1020E00000B50F2A43D90B00032603431E400C0002
:1020F0000300002E40D11500103D2D09AC462D01E6
:10210000A846804400E03B00676825685F60E76898
:102110001D60DF601F00A56810379D6010344345C7
:10212000F1D165460F230C2401352D0149191340C7
:102130004519144223D08C59AC5104369C1B032CF6
:10214000F9D80324043B9B0801339B002240ED187F
:10215000C918561E002A07D0002300E02300CA5CDD
:102160005C1CEA549E42F9D104BC9046F0BD0500C7
:10217000561E002AF0D1F7E7561E0500ECE71A00BC
:10218000F6E7C04670B5446A05000E00002C0DD07D
:10219000E368002B15D0B2009B18186800281CD0EB
:1021A00002681A6000230361C36070BD1020FFF74E
:1021B00041FF041E68621DD00023436083600360FA
:1021C000C36021220421280000F03EFD6B6AE0601C
:1021D000DB68002BDFD10020E7E70124B440621D5B
:1021E00092000121280000F02FFD0028F3D0466066
:1021F0008460D7E7024B00226621024801F040F8D4
:10220000F4CD000854CE000870B5466A05000C00F5
:10221000002E0AD0002C07D06B6A6268DB6892003F
:102220009B181A6822601C6070BD1020FFF702FF27
:102230006862002804D0466086600660C660E9E7F0
:10224000024B00228A21024801F01AF8F4CD00085E
:1022500054CE0008F8B5CE4647468146080080B502
:102260000D000C691F0000211430036801311E04A9
:10227000360C56431B0C5343F619370CDB19360446
:102280001F0C360C1B049B1908C08C42EDDC002F80
:1022900008D0AB68A3420ADD231D9B00EB18013474
:1022A0005F602C6128000CBC90469946F8BD6B68B5
:1022B0004846591CFFF766FF8046002813D02900C6
:1022C0002B690C319A1C92000C30FFF707FF290094
:1022D00045464846FFF798FF231D9B00EB18013445
:1022E0005F602C61DEE7034B0022B521024800F05D
:1022F000C7FFC04640CE000854CE0008F8B5474698
:10230000CE460600180080B50C00083009211F00D9
:10231000904602F043FA092F3ADD012300215B00C9
:1023200001319842FBDC3000FFF72CFF002831D050
:10233000089B4361012303614346092B15DC0923F4
:1023400098460A3447450CDD4346E719FF1A2378BF
:102350000100303B0A2230000134FFF77BFFBC4212
:10236000F5D10CBC90469946F8BD09239946A14485
:102370004D4644442B780100303B0A2230000135A1
:10238000FFF768FFA542F5D14446083C4C44D9E725
:102390000021C8E7024B0022CE21024800F070FF66
:1023A00040CE000854CE00080300020C0020002A92
:1023B00001D11B0410301A0E01D108301B021A0F74
:1023C00001D104301B019A0F01D102309B00002B78
:1023D00002DB01305B0000D570472020FCE7C046DF
:1023E00003685A0708D0DA0720D49A0722D50122B9
:1023F0005B0803601000704719040022002901D116
:102400001B0C1032FF21194201D108321B0A190797
:1024100001D104321B09990701D102329B08D90767
:1024200002D401325B0803D00360E3E70022E1E756
:102430002022DFE79B0803600222DBE710B50C00D7
:102440000121FFF79FFE002803D0012344610361AF
:1024500010BDA021024B00224900024800F010FFED
:1024600040CE000854CE0008F0B557464E464546CB
:10247000DE46E0B50C69166985B00D001700B44260
:1024800004DB33000F00260015001C0033199846AA
:10249000BB687968434500DA0131FFF773FE0290AB
:1024A000002800D19AE014229446029B0022634443
:1024B0009B4643469B005B44190003935B468B4558
:1024C00003D2039904C39942FCD83B0014339C46C1
:1024D00001931423A40099462300B100A944614448
:1024E0004B4400938C46994509D35AE0240C2ED1D5
:1024F00004239A46009BD144D3444B4551D94B46C3
:102500001C6825042D0CF1D05E460021019F30008F
:1025100008CE04CF9A46544613041B0C6B43240484
:10252000240C1B195C18130C52466B43120C9B189D
:10253000220C9B182204190C120C1B041343036079
:10254000BC45E4D84B4631601C68240CD0D05B46B7
:1025500000271B68664659461800BC46019D0A00C4
:102560002F88000C67433F1867441B0438041B0C7A
:10257000034308C208CD48681B0C63430104090CDF
:102580005B183F0CDB19190C8C461100AE42E6D8E3
:10259000136004239A46009BD144B446D3444B4570
:1025A000ADD84346002B0EDD039B043B1A68002A7E
:1025B00009D1424603E0043B1968002902D1013ADF
:1025C000002AF8D19046029B424618001A6105B0D5
:1025D0003CBC90469946A246AB46F0BD5E21034BFB
:1025E0000022FF31024800F04BFEC04640CE0008FA
:1025F00054CE0008F0B503234F464646D646140095
:10260000C0B5134007000E00002B35D1A41023D015
:102610007B6A9846002B38D09D68002D41D001235D
:10262000984600239A464346234208D1641013D0AB
:102630002868002816D0050043462342F6D0310012
:102640002A003800FFF710FF814631003800FFF7FD
:10265000DBFD4E466410EBD130001CBC9046994621
:10266000A246F0BD2A0029003800FFF7FDFE5346C0
:10267000286003600500DFE7124A013B9B009A587F
:102680000023FFF7E7FD0600C0E71020FFF7D2FCAC
:102690008046786200280ED0002343608360036088
:1026A000C36009493800FFF7C9FE4346986000231C
:1026B00005000360B3E7D721044B0022490004481A
:1026C00000F0DEFD50C9000871020000F4CD0008E2
:1026D00054CE0008F0B557464546DE464E46E0B5B6
:1026E0000D0053119A462B6983B053449B465C1CE2
:1026F000AB688046170049689C4203DD01315B00EE
:102700009C42FBDC4046FFF73DFD0190002846D08F
:102710000198524603001433002A0BDD51468446CB
:102720001A00002089008A461431614401C28A429D
:10273000FCD1534429001F202A69143192003840EB
:102740008A188446002821D020206646801B8146B6
:10275000002766460868B040384301C3484680C930
:10276000C7408A42F5D81F60002F00D0A3465B46C1
:10277000019C404623612900FFF746FD200003B07D
:102780003CBC90469946A246AB46F0BD01C901C388
:102790008A42ECD901C901C38A42F7D8E7E7DA21B6
:1027A000024B0022FF31024800F06AFD40CE0008D3
:1027B00054CE00080A69036930B50500981A12D191
:1027C000920014351431AB18891801E09D420AD2E9
:1027D000043B04391C680A689442F7D09442804153
:1027E00001239843013030BDF8B54E464546DE46DC
:1027F0005746E0B50D0011692B69844614005E1A36
:1028000000D070E0280089001430143243185218A8
:1028100001E098426BD2043B043A1F6811688F4272
:10282000F7D05BD369686046FFF7ACFC81460028AF
:102830006AD02B69C6609C4698002369290027004E
:102840009B00834698464D460024143114378B4430
:10285000B84414352E0008C901CF1A04120C1419FB
:102860000204120CA21A1C0C030CE31A14141B19F8
:1028700012041C14120C1B0404351343AA463360C3
:10288000B845E7D88B451DD90E0008CE1A04120CA6
:10289000121914141B0C1B1912041C14120C1B0407
:1028A000134308C5B345F0D858460138461AB60850
:1028B000B6005644002B07D101235B429846043EE4
:1028C0003368C444002BF7D04B4662461A61484631
:1028D0003CBC90469946A246AB46F8BD2B0001266B
:1028E00025001C009EE7002EF8DB00269AE7002159
:1028F0006046FFF747FC814600280CD001234A467A
:10290000136100235361E2E79021064B0022890006
:10291000054800F0B5FC034B00220449024800F0D2
:10292000AFFCC04640CE000854CE00083202000082
:102930000F4B19400F4B9C466144002904DD0022D7
:102940000B001000190070474942091500220023AE
:10295000132904DC8020000308410300F1E7143947
:1029600001201E2902DC80200006C8400200E8E7A2
:102970000000F07F0000C0FCF8B506004746CE46D8
:1029800004691436A4003419231F1D6880B528007B
:102990000F009846FFF708FD20210A1A3A600A281E
:1029A00029DD0B3846451FD208235B429C46A444D0
:1029B00063461F6800281AD00B1A99463B004A4606
:1029C0008540D34019491D4329430B008740664584
:1029D00003D20C3C2068D04007433A001000190095
:1029E0000CBC90469946F8BD0027002817D10F4926
:1029F00029430B00F1E72F0015390B1ADF400B4973
:102A0000994639430B000027464503D24946083C06
:102A10002768CF40153085403D432A00DEE78540DA
:102A20000249002729430B00D7E7C0460000F03FCA
:102A300070B5012182B015001C00FFF7A3FB061E34
:102A40004FD0230364001B0B640D02D0802252037D
:102A500013430193002D17D101A8FFF7C1FC019B7F
:102A600020307361012301253361002C24D0204BD9
:102A70009C46069B644424181C603523181A079B47
:102A80001860300002B070BD68460095FFF7A8FCE2
:102A9000002822D0019D20232A001B1A9A401300EF
:102AA000C540009A019513437361B5616B1E9D414A
:102AB00001353561002CDAD10E4B9C46069B6044F3
:102AC00018600D4BEB189B00F3185869FFF76CFC6E
:102AD0006D01079B2D1A1D60D3E7009B019D73615B
:102AE000E3E7064B00220649064800F0C9FBC04652
:102AF000CDFBFFFFCEFBFFFFFFFFFF3F40CE0008F7
:102B00000A03000054CE0008F0B5CE46474680B513
:102B100085B0884602A98146FFF72EFF06000F0008
:102B2000404603A9FFF728FF009001914946096933
:102B300002008C4641460969884661464046091AAA
:102B400049018C4603980299091A8846C444614693
:102B500000290DDD0B05DD192F00009A019B3000C7
:102B6000390002F00FFC05B00CBC90469946F0BD50
:102B7000080501990B1A00920193EEE710B50400C5
:102B8000172809DD002007490022074B013C02F00D
:102B9000FFFF002CF8D110BD044BC4001C192068A5
:102BA0006168F8E70000F03F00002440B0C9000869
:102BB000130070B54C1E116964110134143389007F
:102BC000A400591804198B420AD2050040CB40C515
:102BD0009942FBD8891A15398908013189004018B2
:102BE000844203D9002308C08442FCD870BDC0468B
:102BF0000200006910B514324C11A0420FDA8300B4
:102C0000D3189A421DD2043B1868002804D016E05D
:102C1000043B1968002912D19A42F9D310BDA300D0
:102C2000D318A042EDDD1F200140EAD01C6820002F
:102C3000C8408840010001208C42EFD1E1E701202B
:102C4000ECE70020EAE7C0464A4370B511001400E3
:102C500000F05EF8051E03D022000021FDF79EFA69
:102C6000280070BD70B50500002915D00C1F236821
:102C7000002B27DB280000F0C7FB244B1A68002A32
:102C800005D0A2420CD921686018824224D062602B
:102C900028001C6000F0BAFB70BDA34203D81A00E4
:102CA0005368002BF9D111685018A0421BD027D8C7
:102CB00021686018834207D063605460280000F0E8
:102CC000A5FBE9E7E418D5E718685B68844661442A
:102CD000216063605460F1E7106852688446614483
:102CE00021606260D4E7206809185018116083429F
:102CF000E4D118685B688446614411605360DDE785
:102D00000C2328002B6000F081FBC5E7680300203E
:102D1000F8B50323CD1C9D43083506000C2D2AD29F
:102D20000C25A94229D8300000F06EFB2A4F3A68E2
:102D3000002A0AD013685B1B04D441E023685B1BA4
:102D40001FD522005468002CF8D17B68002B3DD0A1
:102D50002900300000F082FA431C2AD00323C41C4F
:102D60009C43A04205D0211A300000F077FA431CA2
:102D70001FD0256010E0002DD3DA0C230020336033
:102D8000F8BD0B2B05D86368A2421DD0536003E049
:102D900014002360E4182560300000F037FB2000A9
:102DA00007220B30231D9043C21AE9D01B1AA350EF
:102DB000E6E70C233000336000F028FB0020DFE75B
:102DC0000B2BE5D8140053683B60E5E70021300089
:102DD00000F044FA7860BBE768030020F0B546468F
:102DE0004F46D646C0B58E6881460C0090461D0001
:102DF00008689E4239D890228B89D200134211D1A3
:102E000035002A00414600F0A1FAA36800209E1B6D
:102E10002368A6609C46654425601CBC9046994684
:102E2000A246F0BD0969421A92466269681C5700C1
:102E3000BF18FA0FD7197F1050443A00B84201D991
:102E4000070002005B0512D511004846FFF760FF3E
:102E5000061E1FD052462169FFF740F9A389124A86
:102E6000134080221343A38106E01E00C9E74846B1
:102E700000F0CEFA061E09D0300053465044676178
:102E8000FF1A266120602E00A760BAE72169484634
:102E9000FFF7E8FE0C234A46136040220120A38975
:102EA00040421343A381B8E77FFBFFFFF0B54E46D6
:102EB0004546DE465746E0B5936883B001900D0065
:102EC0009146002B6BD0176808688C6844E090220C
:102ED000AB89D20013422ED02969421A9346686901
:102EE00042001218D00F8218701C5210584490469D
:102EF000904201D9804602008020C000034237D0B2
:102F000011000198FFF704FF041E53D05A462969A7
:102F1000FFF7E4F8AB89294A134080221343AB81C1
:102F2000434620005A462C61B046340058446B6139
:102F30009B1A2860AB604246514600F007FAAB6826
:102F40001C1B2B68AC6043442B6018004B469B68ED
:102F50009E1B4B469E6022D03B687E689A4608378F
:102F6000A046002EF8D0A642B1D23400B046E2E727
:102F7000019800F04DFA041ED2D1019C296920006D
:102F8000FFF770FE0C2323604022AB89012013431E
:102F9000AB814A46002340429360536003E0002324
:102FA0004A460020536003B03CBC90469946A24676
:102FB000AB46F0BD0C23019A1360E5E77FFBFFFFF2
:102FC000F0B54E46DE4657464546E0B5A1B0049002
:102FD00003911C008B8991461B0604D50B69059350
:102FE000002B00D119E1002308AD6B6120336B7613
:102FF0001033AB762F3B98464B461B780794924F85
:10300000002B00D186E0252B00D104E14E4603E0E1
:10301000252B00D18BE026007378741C002BF7D190
:103020004B46E31A9A4675D053464A46039904988C
:10303000FFF7D4FE431C6DD06B6953446B6173780A
:10304000002B67D00122002352426A6044320134CF
:103050002B60EB60AB60AB54AB6506E04346C01B36
:10306000834034002A6813432B60217805223800FE
:10307000FEF7F4FF661C0028F0D12B68B246DA0692
:1030800002D543222021A9541A0702D543222B211D
:10309000A95421782A2950D1079A111D1268079145
:1030A000002A00DA9AE0EA606178A61C2E295CD03A
:1030B000664B032218009946FEF7D0FF002800D186
:1030C00071E04B46C01A402383402A68317813438D
:1030D0002B600622731C5E4899462976FEF7BEFFD8
:1030E00000286AD05B4B002B00D170E007AB009347
:1030F000039A594B29000498FDF776F983465B46FD
:10310000013307D06B695B446B614B461B78002B26
:1031100000D078E7039B9B895B0600D58CE068694B
:1031200021B03CBC90469946A246AB46F0BD4B460A
:10313000E31A9A4600D185E776E70A00303AA246BC
:10314000092AB3D8EB68180001E034000136830087
:103150001B1831785B0098180A00303A092AF4D914
:10316000B246E860A61C2E29A2D1534659782A29D6
:103170003AD1079B1A1D079252469178D61C02221B
:1031800094461B68E2446B60002B00DB90E7012350
:103190005B426B602D4B032218009946FEF75EFFE1
:1031A000002800D08DE7B1465646317806222848DF
:1031B0002976FEF753FF002894D107AB0093039ABA
:1031C000254B29000498FDF7B1FC834697E70722B9
:1031D000079B073393430833079393E75242EA6010
:1031E000022213432B605FE70A000023303A6B6032
:1031F0001800092A01D91CE01E0083001B187178F1
:103200005B0098180A00303A731C092AF4D99A46D0
:10321000023668604CE74C4614E74021FFF778FD22
:10322000039B18601861002809D04023039A53615A
:10323000D9E6B24601363BE70120404270E70C2355
:10324000049A013813606BE788CE000890CE00081E
:1032500094CE0008E9030008DD2D0008002370B5B6
:10326000064C05000800236001F0F6F9431C00D06D
:1032700070BD2368002BFBD02B60F9E734180020C9
:1032800030B51C000A4B05001B6885B0D868002AC1
:103290000AD0084B0292019300912B0022000649AC
:1032A00000F020F800F0B0FB044B1A00F2E7C04633
:1032B000000000209CCE0008ACCE000834CD0008F1
:1032C000130010B50022FFF7DBFFC0460CB400B5B9
:1032D00083B004AB04CB019300F0FAF803B008BC50
:1032E00002B018470EB400B582B003AB0100054828
:1032F00004CB0068019300F0EBF802B008BC03B007
:103300001847C0460000002030B583B0069C034D2E
:103310000094E4242C59A04703B030BD6400002081
:1033200082B000290AD0002A0BD0002B0BD01378D2
:103330000B601078431E984102B0704701A9002A23
:10334000F3D10020F8E702204042F5E7F0B5C64689
:1033500000B588420CD98B18984209D2531E002A16
:1033600003D0CA5CC254013BFBD204BC9046F0BD02
:103370000F2A0CD80500561E002AF6D0002300E0C4
:103380002300CA5C5C1CEA549E42F9D1EDE70B00B5
:10339000032603431E400C000300002E2ED115000F
:1033A000103D2D09AC462D01A846804400E02B00BD
:1033B0001D00276810351F6067685F60A7689F6001
:1033C000E7681034DF604345F1D165460F230C24D4
:1033D00001352D01491913404519144211D08C595A
:1033E000AC5104369C1B032CF9D80324043B9B08E6
:1033F00001339B00ED18C9182240BCE7561E05009A
:10340000BCE71A00B7E7C0467047C0467047C046E1
:10341000F8B507000C00150000291BD0002A15D0B4
:1034200000F03EFF2600A84201D33000F8BD29007D
:103430003800FFF76DFC061EF7D021002A00FEF7CA
:103440004DFE21003800FFF70DFCEEE7FFF70AFC08
:103450000026EAE71100FFF75BFC0600E5E7C0463F
:10346000936810B5013B9360002B04DA9469A34282
:1034700007DB0A2905D01368581C10600800197072
:1034800010BD00F0AFF9FBE7F8B506000F00002B08
:103490000DD01400D51802E00134AC4207D02178D9
:1034A0003A003000FFF7DCFF431CF5D1F8BD0020E7
:1034B000FCE7C046936810B51400002B02D1002031
:1034C000536010BD00F0A4FC0023A3606360F8E724
:1034D000F0B54E46DE4657464546E0B5A1B00490ED
:1034E000039191461C00002804D083690593002BAA
:1034F00000D1BEE0AD4B039A9A4200D1C0E0AC4B84
:10350000039A9A4200D1CDE0AA4B039A9A4200D185
:1035100047E1039A93891B0700D4B9E01369059327
:10352000002B00D1B4E0002308AD6B6120336B7633
:103530001033AB762F3B98464B461B7807949E4F33
:10354000002B00D189E0252B00D125E14E4603E078
:10355000252B00D1AAE026007378741C002BF7D12C
:103560004B46E31A9A4678D053464A460399049844
:10357000FFF78AFF431C70D06B6953446B6173780B
:10358000002B6AD00122002352426A604432013487
:103590002B60EB60AB60AB54AB6506E04346C01BF1
:1035A000834034002A6813432B60217805223800B9
:1035B000FEF754FD661C0028F0D12B68B246DA06EF
:1035C00002D543222021A9541A0702D543222B21D8
:1035D000A95421782A2900D06EE0079A111D12689B
:1035E0000791002A00DABAE0EA606178A61C2E2969
:1035F00000D17AE0714B032218009946FEF72EFDA8
:10360000002800D18FE04B46C01A402383402A682F
:10361000317813432B600622731C6948994629763A
:10362000FEF71CFD002800D188E0664B002B00D17E
:103630008EE007AB0093039A634B29000498FCF7D4
:10364000D3FE83465B46013307D06B695B446B61F5
:103650004B461B78002B00D075E7039B9B895B06CC
:103660001DD4686921B03CBC90469946A246AB4641
:10367000F0BD00F0A5FB4D4B039A9A4200D03EE707
:10368000049B5B680393039A93891B0700D545E766
:103690000399049800F032F9002800D143E7012093
:1036A0004042DFE7049B9B68039332E74B46E31AF3
:1036B0009A4600D166E757E70A00303AA246092A3F
:1036C00095D8EB68180001E03400013683001B1820
:1036D00031785B0098180A00303A092AF4D9B246CA
:1036E000E860A61C2E2900D084E7534659782A2981
:1036F0003BD1079B1A1D079252469178D61C022295
:1037000094461B68E2446B60002B00DB72E70123E8
:103710005B426B60294B032218009946FEF79EFC22
:10372000002800D06FE7B14656463178062224487B
:103730002976FEF793FC002800D076E707AB0093CC
:10374000039A214B29000498FDF7F0F9834679E7A5
:103750000722079B073393430833079375E75242C9
:10376000EA60022213432B603FE70A000023303A4D
:103770006B601800092A01D910E01E0083001B1895
:1037800071785B0098180A00303A731C092AF4D942
:103790009A46023668602DE74C46F3E6B24601369B
:1037A00028E7049BDB680393B3E6C046BCCB000864
:1037B0009CCB00087CCB000888CE000890CE000887
:1037C00094CE0008E90300088934000810B504000D
:1037D0001300034A10680A002100FFF779FE10BDAC
:1037E00000000020F8B505000E001400002802D0EB
:1037F0008369002B29D02D4B9C422BD02C4B9C4213
:1038000046D02C4B9C424ED0A369A360A3891B07D2
:1038100026D52369002B23D0FF22F7B26169164019
:103820002268D31A99422ADD0133A1680139A160C7
:10383000511C2160177062699A422BD0A389DB0763
:1038400001D50A2E26D03000F8BD00F0B9FA174B8A
:103850009C42D3D16C68A369A360A3891B07D8D409
:103860002100280000F04AF8002819D1FF2223691E
:10387000F7B2616916402268D31A9942D4DC21005C
:10388000280000F063F900280AD122680123CCE760
:10389000AC68B9E72100280000F058F90028D2D020
:1038A00001267642CFE7EC68AEE7C046BCCB000805
:1038B0009CCB00087CCB000810B5044B0A001B68A9
:1038C00001001800FFF78EFF10BDC0460000002069
:1038D00070B5E024014D2C59A04770BD6400002054
:1038E000002909D0FF2A02D801200A7070478A23D4
:1038F000036001204042F9E70020F7E73E4B70B536
:103900001D6806000C00002D02D0AB69002B1BD0F7
:103910003A4B9C421ED03A4B9C424CD0394B9C4275
:1039200060D00C23E25E93B2190719D521690029F2
:1039300021D0DA072ED50023A360636900205B4203
:10394000A36100292ED070BD280000F039FA2B4B5E
:103950009C42E0D16C680C23E25E93B21907E5D477
:10396000D90641D55B0728D4216908231343A381D5
:103970009BB20029DDD1A0228020920080001A4055
:103980008242D6D02100300000F042FCA389216998
:10399000DA07D0D400229B0700D46269A26000201D
:1039A0000029D0D10C22A35E1A06CCD540221343A5
:1039B000A3810138C7E7AC68B3E7616B00290AD07F
:1039C00023004433994204D03000FFF74BF90C2315
:1039D000E25E0023636324239A430023216963602A
:1039E0002160C2E7EC689CE7092333604023012093
:1039F0001A43A2814042A6E700000020BCCB000889
:103A00009CCB00087CCB000810B5062000F0E0FC41
:103A1000012000F037FEC046F0B5C64600B58B89E0
:103A200080460C001A0745D44A68002A63DDE56A1F
:103A3000002D3BD042464146166800220A60216AAA
:103A4000DA045CD4012300224046A847431C61D01D
:103A5000A389E56A216A5B0706D56368C01A636BB0
:103A6000002B01D0236CC01A002302004046A84757
:103A7000431C46D143461B680C21625E002B56D086
:103A80001D2B01D0162B5DD10023636023692360B9
:103A90004346616B1E60002908D0230044339942DD
:103AA00002D04046FFF7DEF800236363002004BC29
:103AB0009046F0BD0E69002EF8D00A680E60951B86
:103AC00000229B0700D14A69A260002D04DCEDE7CB
:103AD00036182D1A002DE9DD2B003200216A4046F0
:103AE000A76AB8470028F3DC40220120A38940429E
:103AF0001343A381DBE70A6C002A98DCD6E7606DEC
:103B0000A9E70023636023692360A389DB04BFD591
:103B10006065BDE743461B68002B99D01D2B0DD077
:103B2000162B0BD04022A3891343A381BFE7636008
:103B300023692360D304ABD56065A9E74346002021
:103B40001E60B4E740231A43A281B0E70B6970B549
:103B500005000C00002B16D0002802D08369002B32
:103B600015D00E4B9C4210D00D4B9C4212D00D4BE9
:103B70009C4211D00C22A35E002B04D0210028000F
:103B8000FFF74AFF00E0002070BD6C68F2E700F02C
:103B900017F9E6E7AC68EDE7EC68EBE7BCCB0008AB
:103BA0009CCB00087CCB000810B5011E04D0054B4F
:103BB0001868FFF7CBFF10BD034B0449186800F0ED
:103BC000D9FAF8E70000002048C900084D3B00087A
:103BD0000020704710B5024900F0CCFA10BDC04675
:103BE0004D3B00080020704770B568244A1E5443BE
:103BF0000E0021007431FFF78BF8051E09D0002359
:103C00002200036046600C30A86068320021FCF797
:103C1000C5FA280070BDC0461E4B70B51D68060071
:103C2000AB69002B27D048356B68AC68013B03D5E6
:103C30001CE06834013B19D30C21625E002AF8D1E4
:103C400000252000144B656625606560A560E36073
:103C500025616561A561082200215C30FCF79EFAB0
:103C60006563A563A564E564200070BD2C68002C25
:103C700005D02500D8E7280000F010F8D3E704218C
:103C80003000FFF7B1FF041E2860F2D10C2333602F
:103C9000EAE7C04648C900080100FFFFF0B5D64674
:103CA0004F464646384BC0B5836200238364C364E5
:103CB0000365364B82B01B6805000193984260D0C3
:103CC0002800FFF7A9FF68602800FFF7A5FFA8609C
:103CD0002800FFF7A1FF6E680024E860042330008D
:103CE000746634607460B460F36034617461B461AC
:103CF000082200215C30FCF751FA254B254F9A46EB
:103D00007362254B37639946B362244B3662F36284
:103D1000AE6898463000224B746634607460B460BC
:103D2000F36034617461B461082200215C30FCF7F7
:103D300035FA534673624B46B36243463763F362C8
:103D40003662EE68174B3000F3607466346074605E
:103D5000B46034617461B461082200215C30FCF706
:103D60001DFA534673624B46B3624346F362012326
:103D700036623763AB6102B01CBC90469946A246DE
:103D8000F0BD012383619BE7D53B000848C90008CB
:103D90005D440008F544000889440008C94400084F
:103DA000090001001200020010B5034B0349186816
:103DB00000F0E0F910BDC04648C900084D3B0008BE
:103DC000836910B5002B01D1FFF768FF10BDC04615
:103DD0007047C0467047C0467047C0467047C046EF
:103DE00010B5034B0349186800F0A2F910BDC04696
:103DF00000000020D13B000810B5034B03491868B0
:103E000000F096F910BDC04600000020E53B000818
:103E1000F0B54546DE4657464E46E0B5936883B05A
:103E200000900C009046002B6DD08B891A0700D4AF
:103E300071E00A69002A00D16DE0424616689A07CF
:103E400000D475E0A36A00279A46B54B0025994631
:103E5000216A002D16D02B004D4500D9B04B3A00F9
:103E60000098D047002800DCD5E043469B683F1807
:103E70002D1A181A4346986045D0A36A216A9A46BB
:103E8000002DE8D1376875680836E2E74B461B68B5
:103E90009A464B465F6808239C46E144002FF5D0C4
:103EA0003A000A215046FEF7D9F8002800D1CEE0AA
:103EB00053460130C61A3300BB469F4200D99B4689
:103EC000206822696369904204D9A2689D18AB45B5
:103ED00000DD92E05B4500DDF9E0A56A5246216A0B
:103EE0000098A847051E00DC95E0761B0120002EF7
:103EF00000D1E4E043469B68AA447F1B5D1B434618
:103F00009D6000D095E0002003B03CBC90469946EF
:103F1000A246AB46F0BD21000098FFF7EFFC002859
:103F200000D0F9E04246A38916689A0700D589E7D0
:103F3000DA0778D400229146802292000027934627
:103F4000A5682068002F53D05A46134200D181E063
:103F5000AA46BD4200D9AFE09022D20013422ED033
:103F60002169451AAC466069019542001218D00FCC
:103F70008218781C521060449246904201D98246C1
:103F800002005B0500D4AFE011000098FEF7C0FE10
:103F9000051E00D1BAE0019A2169FEF79FF8A389B6
:103FA000604A134080221343A3815246019B25613E
:103FB000E818BA463D00D31A20606261A3605246F9
:103FC0004946FFF7C3F9A3685D1BA5603D000027C4
:103FD00023685344236043469B68A9445D1B4346C2
:103FE0009D6000D18FE7A5682068A389002FABD121
:103FF0003268776891460836A4E751462A00FFF7F1
:10400000A5F9236821005B1923600098FFF79EFD46
:10401000002800D169E70C22A35E4022012013434F
:10402000A381404270E70023B14600209A46002752
:104030001E00002F00D129E7002800D03BE73A00FE
:104040000A215046FEF70AF8002800D030E77B1C12
:104050001E0031E72369834217D363699A46BB4246
:1040600013D8314B38009F4200D93048514600F0F8
:1040700095FB53464A464343216A0098A56AA847E0
:104080000028C8DD05007F1BA5E7BD4200D93D0023
:104090002A004946FFF75AF9A36822685B1B5219A8
:1040A000A3602260002BEED121000098FFF74EFDA7
:1040B0000028B0D17F1B8EE73D00BA467FE7210084
:1040C0000098FFF743FD002800D113E7A3E75A4605
:1040D0005146FFF73BF95A46A3685D469B1AA36019
:1040E00023685B44236000E70098FFF791F9051E01
:1040F00000D05AE7009D21692800FEF7B3FD802219
:10410000A3899343743A1BB22A6086E70C23009A72
:1041100013600C22A35E80E701204042F4E6C04613
:1041200000FCFF7F7FFBFFFFFEFFFF7FFFFFFF7FA6
:10413000F0B5C646483000B588460700002600287E
:1041400013D07B68BC685D1E0CD4A389012B06D9F3
:104150000E22A35E013302D02000C047064368341C
:10416000013DF2D23F68002FEBD1300004BC9046F5
:10417000F0BDC046F8B54746CE4680B50700483783
:10418000804689460026002F14D07B68BC685D1EDF
:104190000DD4A389012B07D90E22A35E013303D0CE
:1041A00021004046C84706436834013DF1D23F68CC
:1041B000002FEAD130000CBC90469946F8BDC046AD
:1041C00070B50C001D000E23C95E96B016000029C4
:1041D00014DB6A4600F0BAF900280FDBF022019BDD
:1041E00012021340094A944663445A4253412B60D9
:1041F0008023DB003360002016B070BD00232B60ED
:10420000A3891B06F4D540233360F4E700E0FFFFE9
:1042100070B58B8982B006000C009B0707D5230080
:104220004733236023610123636102B070BD01AB9A
:104230006A46FFF7C5FF009905003000FEF768FDEC
:10424000002810D08022154BB362A389206013434D
:10425000009A1BB26261019AA3812061002A0CD1ED
:104260002B43A381E1E70C22A35E9A05DDD4032250
:10427000934302221343A381D1E70E23E15E300072
:1042800000F078F9002802D10C22A35EE8E70322AF
:10429000A3899343012213431BB2E1E7D53B0008F6
:1042A0000B1F1B68181F002B00DB70470B58C01832
:1042B000FBE7C04610B580210400FEF729FD6064CD
:1042C000002807D002000023803208C09042FCD1B1
:1042D000002010BD01204042FBE7C046426C10B5F3
:1042E0000023002A01D0180010BDFFF7E3FF0300F0
:1042F000F9E7C04670B505000C0016001F2907D865
:10430000436C002B09D0A4001B1918681E6070BDF7
:104310001623036001204042F9E7FFF7CBFF002896
:1043200001D16B6CEFE701204042F0E770B505006A
:104330000C001F2920D8436C002B0ED08A009B183C
:104340001A68002A09D0012A14D0511C0ED000216D
:10435000200019609047002070BD280000F07AF816
:1043600022000100280000F061F8F5E71623036041
:104370000120F1E70020EFE716230360012040420F
:10438000EAE7C04670B505000C001F291DD8436C34
:10439000002B10D0A2009B181A68002A09D0511CCB
:1043A00011D0012A0DD00021200019609047002073
:1043B00070BD0120FCE7FFF77DFF002805D16B6C85
:1043C000E8E70320F4E70220F2E701204042EFE7AC
:1043D00010B5034B01001868FFF7A8FF10BDC046D9
:1043E0000000002010B5044B0A001B6801001800F3
:1043F000FFF780FF10BDC04600000020054B10B540
:104400001B6800205A6C002A00D010BD1800FFF76E
:1044100051FFFAE70000002010B5034B01001868B7
:10442000FFF7B0FF10BDC04600000020002370B5AC
:10443000074C050008001100236000F0F5F8431C4C
:1044400000D070BD2368002BFBD02B60F9E7C0467D
:104450003418002010B500F0D7F810BD70B50C006E
:104460000E25495F00F0ACF8002803DB636D1B18D4
:10447000636570BDA389024A1340A381F9E7C04672
:10448000FFEFFFFF00207047F8B516001F000C2259
:104490008B5E0C0005000E22895EDA0508D4094AFD
:1044A00028001340A38132003B0000F029F8F8BD3A
:1044B0000022022300F070F80C22A35E0E22A15EFF
:1044C000EDE7C046FFEFFFFF70B50C000E25495F1A
:1044D00000F062F8431C06D08023A2895B011343DD
:1044E000A381606570BDA389014A1340A381F9E7E8
:1044F000FFEFFFFF10B50E23C95E00F015F810BDE9
:1045000070B50500080011000022064C22601A0058
:1045100000F0B0F8431C00D070BD2368002BFBD026
:104520002B60F9E734180020002370B5064C050015
:104530000800236000F058F8431C00D070BD2368C9
:10454000002BFBD02B60F9E734180020002370B556
:10455000074C050008001100236000F04DF8431CD3
:1045600000D070BD2368002BFBD02B60F9E7C0465C
:1045700034180020002370B5064C050008002360A5
:1045800000F04AF8431C00D070BD2368002BFBD01C
:104590002B60F9E73418002070B505000800110001
:1045A0000022064C22601A0000F046F8431C00D09E
:1045B00070BD2368002BFBD02B60F9E73418002076
:1045C00070B50500080011000022064C22601A0098
:1045D00000F03AF8431C00D070BD2368002BFBD0DC
:1045E0002B60F9E73418002058220120014B40428B
:1045F0001A6070473418002058220120014B4042B5
:104600001A6070473418002058220120014B4042A4
:104610001A607047341800205822024B00201A609C
:104620007047C0463418002058220120014B4042F8
:104630001A6070473418002058220120014B404274
:104640001A6070473418002058220120014B404264
:104650001A60704734180020044A1368002B03D0F6
:104660001818106018007047014BF9E7700300201C
:104670003818002058220120014B40421A60704730
:1046800034180020FEE7C046002243088B4274D352
:1046900003098B425FD3030A8B4244D3030B8B4243
:1046A00028D3030C8B420DD3FF22090212BA030C4C
:1046B0008B4202D31212090265D0030B8B4219D32D
:1046C00000E0090AC30B8B4201D3CB03C01A52414D
:1046D000830B8B4201D38B03C01A5241430B8B4295
:1046E00001D34B03C01A5241030B8B4201D30B037E
:1046F000C01A5241C30A8B4201D3CB02C01A5241A5
:10470000830A8B4201D38B02C01A5241430A8B4267
:1047100001D34B02C01A5241030A8B4201D30B0250
:10472000C01A5241CDD2C3098B4201D3CB01C01A6A
:10473000524183098B4201D38B01C01A5241430974
:104740008B4201D34B01C01A524103098B4201D362
:104750000B01C01A5241C3088B4201D3CB00C01ACF
:10476000524183088B4201D38B00C01A5241430847
:104770008B4201D34B00C01A5241411A00D201466C
:10478000524110467047FFE701B5002000F0F0F8F5
:1047900002BDC0460029F7D076E7704703460B43B9
:1047A0007FD4002243088B4274D303098B425FD32A
:1047B000030A8B4244D3030B8B4228D3030C8B4256
:1047C0000DD3FF22090212BA030C8B4202D312123C
:1047D000090265D0030B8B4219D300E0090AC30B11
:1047E0008B4201D3CB03C01A5241830B8B4201D3BE
:1047F0008B03C01A5241430B8B4201D34B03C01AA7
:104800005241030B8B4201D30B03C01A5241C30A1E
:104810008B4201D3CB02C01A5241830A8B4201D38F
:104820008B02C01A5241430A8B4201D34B02C01A79
:104830005241030A8B4201D30B02C01A5241CDD21E
:10484000C3098B4201D3CB01C01A524183098B4269
:1048500001D38B01C01A524143098B4201D34B0152
:10486000C01A524103098B4201D30B01C01A5241B5
:10487000C3088B4201D3CB00C01A524183088B423C
:1048800001D38B00C01A524143088B4201D34B0025
:10489000C01A5241411A00D2014652411046704797
:1048A0005DE0CA0F00D04942031000D3404253409C
:1048B00000229C4603098B422DD3030A8B4212D35C
:1048C000FC22890112BA030A8B420CD3890192118E
:1048D0008B4208D3890192118B4204D389013AD0CB
:1048E000921100E08909C3098B4201D3CB01C01AA0
:1048F000524183098B4201D38B01C01A52414309B3
:104900008B4201D34B01C01A524103098B4201D3A0
:104910000B01C01A5241C3088B4201D3CB00C01A0D
:10492000524183088B4201D38B00C01A5241D9D225
:1049300043088B4201D34B00C01A5241411A00D2A6
:104940000146634652415B10104601D34042002BA2
:1049500000D54942704763465B1000D3404201B521
:10496000002000F005F802BD0029F8D016E77047D6
:104970007047C0468446101C62468C46191C63462C
:1049800000E0C0461FB501F093F8002801D40021D3
:10499000C8421FBD10B500F0DDFF4042013010BD20
:1049A00010B501F085F8002801DB002010BD0120C2
:1049B00010BDC04610B501F07BF8002801DD0020D5
:1049C00010BD012010BDC04610B500F0FFFF00284B
:1049D00001DC002010BD012010BDC04610B500F064
:1049E000F5FF002801DA002010BD012010BDC046EF
:1049F000F8B557464E464546DE464402E0B545000A
:104A00000F1C640A2D0EC60F002D47D0FF2D4DD070
:104A1000002380209A469B46E400C00404437F3D67
:104A20007802430A99467A00FB0F9846120E4B46CD
:104A300044D0FF2A11D0D8008023DB0403439946D9
:104A400000207F3AAD18474653467740691C0F2B2C
:104A50003FD8724A9B00D3589F46FF35002B00D0A9
:104A600079E0524602231A4392460220EBE747467A
:104A70004C4683465B46022B28D0032B00D1C6E070
:104A8000012B4FD100200024C005FF0720433843ED
:104A90003CBC90469946A246AB46F8BD002C71D16D
:104AA00004239A46033B00259B46B9E7002C63D1BB
:104AB00008239A46063BFF259B46B1E7002B50D1C1
:104AC000524601331A4392460120BCE7FF200024DE
:104AD000DAE74846260C2404220C0404240C4B4636
:104AE00020001B0C504374435A435E431219030CBD
:104AF0009B189C4203D980225202944666440004CB
:104B00001A04000C12189401601E84411B0C920EB2
:104B10009B1914439B011C431B0172D501206308A0
:104B200004401C4308007F3000283CDD630704D0AC
:104B30000F232340042B00D00434230103D58031FC
:104B40000800374B1C40FE28C0DCA401640AC0B238
:104B50009AE737008EE7524603231A439246032012
:104B600071E7484601F08CFF4A46431F9A402D1AD0
:104B700091460020763D66E70C239A46093BFF25C7
:104B80009B464DE7200001F07BFF7625431F9C40AC
:104B900000236D429A469B462D1A41E78024002748
:104BA000FF20E40370E701231B1A1B2B00DD69E7DC
:104BB0009E3120008C40D840631E9C410443630713
:104BC00004D00F232340042B00D0043463011AD5F2
:104BD0000120002458E78020C003044209D04B463E
:104BE000034206D14C46044364024746FF20640A50
:104BF0004AE78020C003044364023700FF20640AB0
:104C000042E729008EE7A4010020640A3CE78020E7
:104C1000C00304436402FF20640A35E7DCCB0008CC
:104C2000FFFFFFF770B5002813D0C317C5185D400C
:104C3000C40F280001F024FF9E2301001B1A962BAD
:104C40000FDC082801DD08398D406D026D0AD8B2ED
:104C500002E0002400200025C0052843E40720438B
:104C600070BD992B0BDD05222E00121AD6400200D2
:104C70001B3295402800451EA841350005430529F3
:104C800001DD4A1F95402A00084E3240680709D0CE
:104C90000F202840042805D00432500102D59F235C
:104CA00032405B1A9201550AD8B2D5E7FFFFFFFBED
:104CB000F0B54F46D64646460D0001001800C0B577
:104CC00017002B035A0A4B0F1343CA0091460203E5
:104CD0006E004100520AEC0F7D0F1543760D490D11
:104CE000C00F8246AC46FF00721A844200D198E0A1
:104CF000002A00DC81E0002900D1B6E0C9498E42DB
:104D000000D172E180212800090408438446382A32
:104D100000DD5EE11F2A00DDEEE12020390065465E
:104D2000801A8740D14085400D4339004F1EB9415C
:104D30006746D7402943DB1B4A46551AA945894196
:104D400049425B1A984643461B0200D4CCE04346D6
:104D50005B025B0A98464346002B00D12CE140469B
:104D600001F08EFE01000839202228004346521A25
:104D70008B40D0408D4003438E4200DD17E18E1BF7
:104D8000721C1F2A00DDA7E1202118002E00891ABD
:104D90008D408840D640D340691E8D4130439846AF
:104DA000002605436B0709D00F232B40042B05D0A9
:104DB0002B1DAB42AD416D42A8441D0043461B0272
:104DC00000D494E0974B721C9A4200D19DE041467A
:104DD000954BED0819400B00520549075B0229432A
:104DE0001B0B520D12051343E4072343080019005F
:104DF0001CBC90469946A246F0BD002A43D08A1BAF
:104E0000002E00D02AE14C461C4300D1D1E1541EB3
:104E1000012A00D11FE2834DAA4200D172E2220092
:104E200023E1002A00DC98E0002942D07D498E422F
:104E300000D1DAE080212800090408438446382A9A
:104E400000DD29E11F2A00DC87E1110065462039D9
:104E5000CD40202A04D040206146821A91400F4361
:104E600039004F1EB9410D431BE12900394300D1E0
:104E7000B5E0511E012A00D1ABE16A48824200D15F
:104E8000B2E10A0043E76949751C0D4200D0CFE04A
:104E9000002E00D093E14946194300D1D1E161468B
:104EA000394300D0E3E149465807C9080143DB080C
:104EB00026E02900394300D191E0511E012A05D096
:104EC0005848824200D18FE10A00B8E73D004D44C6
:104ED0004D458941634498464942884443460226E9
:104EE0001B0200D5EBE0013E6B0700D05CE74346B8
:104EF000E9085A0711433200DB084A48824221D0B0
:104F00001B0352051B0B520D6CE70023002169E7C0
:104F10002A003A4369D04A465807D108DA08802364
:104F20001B0308431A4207D02900ED081D4203D194
:104F30002A00FF0848073843430FC1005B07C90830
:104F4000194313000A001A4300D113E2802212030E
:104F500013431B03334A1B0B44E7002A4BD08A1B25
:104F6000002E00D1E7E02F48814200D195E180205A
:104F700000040343382A00DD43E11F2A00DDDBE1A2
:104F800020201D004E46801A8540D64035434E46AF
:104F900086403000D340461EB0419C440543ED1985
:104FA000BD429B415B42634498460E007FE01E4A2F
:104FB000761A13409846F5E6280001F061FD0100DD
:104FC00018311F2900DCCFE62B000838834000256C
:104FD000D2E662463A4311004F1EB941ACE649465B
:104FE0005807C9080143DB0887E749465A07C9083B
:104FF0001143DB08A6E70D49701C084200D0BBE056
:10500000002E00D014E14946194300D175E1290072
:10501000394300D07EE149465807C9080143DB08FF
:105020006EE7C046FF070000FFFF7FFFFE0700009E
:105030004946CD1B6146581AA945894149428846CF
:1050400001004046091A8846090200D5A6E04146FB
:10505000294300D07FE60023002451E7C74CA1423A
:1050600000D1C7E0802424042343382A54DC1F2ABB
:1050700000DDCCE020244846A41A1D004E46A04086
:10508000D640A5400400D34062463543661EB44175
:10509000D31A9C46254344E062463A4315006F1EEE
:1050A000BD414D444D458941494288469844434657
:1050B0001B0200D418E7B14B01369E4249D042464C
:1050C000AF4B01211A4013006A080D401543D90760
:1050D0005B0898460D4365E618001F3EF040202A05
:1050E00003D040218A1A93401D43691E8D4100233D
:1050F000002698460543F7E6110065462039CD4065
:10510000202A04D040206146821A91400F43390082
:105110004F1EB94129430FE64A4613431D006B1E3B
:105120009D417D1BAF429B4162465B42D31A98462C
:1051300054460E0007E64846184300D1B3E0501E1F
:10514000012A00D10DE18D4DAA4200D1A5E0020057
:1051500010E732000023002144E620213800891A9C
:1051600065468F408D40D040791E8F4105433D43B9
:105170006746D740DB1994E7804A904200D1ECE0C3
:105180003900494449459241634452429B18DD0726
:1051900049085B08984606000D43A5E64A46BD1A35
:1051A000AF42894162464942D31A5B1A9846544637
:1051B000D1E56C07F9082143EB0804009DE64A4657
:1051C0001A4375D16146394314D1802300241B034F
:1051D000BCE64A46D51BA9458941624649429B1A0D
:1051E0005B1A98460126AEE54A46D1085A07114394
:1051F000DB08A7E66346F9085A0754461143DB0863
:10520000A0E64A4613431D006B1E9D41C7E61400ED
:105210001E00203CE640202A05D04024A21A9340DC
:105220004A461A4391464D466B1E9D41354378E7E9
:105230004A461A4300D06BE66B07F9081943EB089E
:1052400080E66146394354D06346F9085C07214340
:10525000DB08040054E64A46BD1AAF428941624663
:105260004942D31A5B1A9846040001266BE54A4668
:10527000D51BA9458941624649429A1A521A90465D
:10528000120232D54A46BD1AAF42894162464942AE
:10529000D31A5B1A9846040084E56346F9085A0756
:1052A0001143DB084EE6F90868070143EB0824E6E2
:1052B00062463A4300D198E64A46D1085A0711435C
:1052C000DA0880231B031A4208D06046C5081D4235
:1052D00004D154462A00F908430719434B0FC9006B
:1052E0005B07C908194313002CE64146294300D047
:1052F000FAE500230A00002402E66B07F9081943C7
:10530000EB08FDE56346F9085B07194363460400B3
:10531000DB0817E63D004D4463444D4589419846FE
:105320004942884443461B0200D4DDE54246144B03
:1053300001261A409046D7E510001E002038C640CE
:10534000202A05D04020821A93404A461A439146AB
:105350004D466B1E9D41354321E60200002300218E
:1053600040E54A46D519BD428941634498464942C1
:105370008844B3E50021014A0B0033E5FF07000034
:10538000FFFF7FFFF0B557464E464546DE46E0B587
:10539000814605000C03480092461F0085B0240B8F
:1053A000400DCE0F002859D0874B984200D198E08D
:1053B0006B0FE4001C4380231B0423439846834B5C
:1053C000ED009B4600239946834400933C037B00F9
:1053D0005046240B5B0DFF0F002B67D07A4A934297
:1053E00018D07A49420F8C46E40059461443802273
:1053F00063441204CB1A14439B46C20000203300BE
:105400007B409A464B460F2B00D9EFE070499B003A
:10541000CB589F466F4B52469C462243E344002A9A
:1054200000D095E049460223194389460024022012
:10543000E5E700230024002552461B052343D2073D
:1054400013432800190005B03CBC90469946A2467B
:10545000AB46F0BD002400255B4BEDE74B462343F4
:10546000984600D189E0002C00D1E0E1200001F055
:1054700007FB010002000B391D235B1A494610008F
:10548000D940083884400B004D4623439846854058
:1054900051483C03831A9B460023994600937B00A6
:1054A0005046240B5B0DFF0F002B97D15246224331
:1054B00055D0002C00D1CAE1200001F0E1FA020031
:1054C0000B3A1D2301009B1A52460839DA408C40E2
:1054D000144352468A40414B58449B468344002023
:1054E0008DE74B462343984640D108239946063B17
:1054F00000258346009369E7B246009B022BA9D0A2
:10550000032B00D111E2012B93D0354A5A44002AD3
:1055100000DC3CE16B0700D0A7E1ED084346DB016E
:1055200006D542462F4B1A4090468022D2005A445C
:105530002D4B9A428EDC4346520558075C020543C8
:10554000240B530D78E7BA46A04615000090D4E727
:105550004A4603231A439146032052464FE74946E1
:105560000123194389460024012048E70C2399466A
:10557000093BA0468346009328E70423994600236D
:105580009B4601330025009320E7002380249A46A0
:1055900000250D4B24034FE7802341461B0319428E
:1055A00008D01C4206D11C432403BA461500064B02
:1055B000240B41E78024434624031C432403B246C2
:1055C000014B240B38E7C046FF07000001FCFFFF3A
:1055D0001CCC000801F8FFFF0DFCFFFFF3030000E7
:1055E000FF030000FFFFFFFEFE070000444500D25E
:1055F00016E100D111E101235B429C462E0040469A
:105600000025E3442302140E1C431B0C994623047B
:105610001F0C1202494600920197FFF7BBF80200E7
:105620007A430B04310C804619438A420BD901237B
:105630005B429C460919E0448C4204D88A4202D954
:10564000831E98460919881A4946FFF7A3F80904EA
:105650008C4631046646019A090C424303003143EB
:105660008A4204D90919013B8C4200D811E1891AF8
:105670004246009E12041A43330C1F00100C904641
:10568000029313043204160C32001B0C5A43039687
:105690007B4346437843170CBC469B1963449E42A8
:1056A00003D980267602B44660441E0C30181604D6
:1056B0001B04360C9E19814200D29CE000D197E079
:1056C000AE1B091AB54280414042081A844200D1FB
:1056D00011E14946FFF75EF8019A0B044243310C91
:1056E000050019438A4207D90919013D8C4203D8A4
:1056F0008A4201D9851E0919881A4946FFF74AF8D6
:1057000009048C4631046646019A090C42430300A1
:1057100031438A4207D90919013B8C4203D88A4296
:1057200001D9831E0919039E891A32002D041D43D5
:10573000029F2B041B0C5A437B439C46280C464378
:10574000130CB444634478439E4203D98026760206
:10575000B44660441E0C12041B04120C30189B1833
:10576000814206D302D001231D43CEE6002B00D197
:10577000CBE661186E1EA14200D2A4E0814200D2A5
:10578000C9E000D1D9E03500EDE701256D420121E6
:10579000891A382900DD4CE61F2900DC7FE01F2331
:1057A0005B429A1A4346D340202904D04446654AB6
:1057B0005A44944025436A1E954107222B43150005
:1057C00000241D401A4200D1A1E00F2200241A40FB
:1057D000042A00D198E01A1D9A429B415B42E418CA
:1057E0001300220200D48FE001230024002523E6C9
:1057F000B54200D364E743465A1E009B9C4665446D
:105800001F009D429B415B421B19C9188C423AD232
:10581000884263D860D0904652E7AA4200D9EAE6AF
:105820004346DE0758086B081E43ED07EAE6484684
:1058300001F026F901000200153120321C2900DC9C
:105840001AE64B46083883400025984620E601F0CA
:1058500017F903001A00153220301C2A00DC30E64C
:105860005446083B00229C4035E60F232B40042B76
:1058700000D152E605235B42AB429B4104355B42BB
:10588000ED0898444AE68C42C5D1AF42C0D9904653
:1058900016E78A4200D8EAE6831E0919E7E62A4A93
:1058A00028005A44434695409340C8406A1E95419B
:1058B000444603432B43CC405A0792D00F221A4050
:1058C000042A88D18DE73500814200D04BE7009A49
:1058D000934200D047E718E6AE429CD902235B42D0
:1058E0009C46009BE0449C4665449D429B415B4234
:1058F0001B19C918E4E6154A5A44002A00DC44E79B
:1059000001230025984409E665076402240BDB089F
:105910001D43002390E5009E023D7200B242BF414C
:105920007F423C1909190092CEE7802443462403A4
:105930001C432403064B240B7EE5009A9A42EAD3CB
:105940003500C4E73E0400001E040000FF03000011
:10595000FF070000F0B54F464646D64694469146AE
:105960001A03120B184DC0B54C000F0392465A0093
:10597000060080463F0B0120640DC90F520DDB0F5E
:10598000AC420AD0AA4203D0944201D157450DD06F
:105990001CBC90469946A246F0BD3D003543F7D168
:1059A000A242F5D1524665462A43F1D10120C845AD
:1059B000EED1994206D0002CEAD13E433000461E7B
:1059C000B041E5E70020E3E7FF070000F0B54E46F1
:1059D00045465746DE4604001800E0B516001B0396
:1059E0001B0B324D0F034A0099464300A446B046B4
:1059F0003F0B520DC90F5B0DC00FAA4229D0AB421D
:105A000018D0002A2AD13C43A34665426541002BA9
:105A100002D14C46264327D0002D15D1814228D0F3
:105A200002200139084001383CBC90469946A24604
:105A3000AB46F0BD4D462E432FD1002AEED13C435C
:105A400065426541002DE9D00028EDD1012040429A
:105A5000EAE73D00254320D19342EBD0002BDDD176
:105A60004C462643DAD1DBE75B460020002BDBD037
:105A7000D6E79A420ADCE7DB4F45D1D810D00020A8
:105A80004F45D1D20029E1D00800CDE7434258412B
:105A90000223404218400138C6E702204042C3E7D3
:105AA000C445BDD80020C445BED2EBE7FF070000C7
:105AB000F0B54E4645465746DE4604001800E0B5B0
:105AC00016001B031B0B314D0F034A009946430080
:105AD000A446B0463F0B520DC90F5B0DC00FAA4242
